:0200000460009A
:100000004643464200000156000000000101020084
:1000100000000000000000000000000000000000E0
:1000200000000000000000000000000000000000D0
:1000300000000000000000000000000000000000C0
:1000400000000000010403000000000000000000A8
:100050000000200000000000000000000000000080
:100060000000000000000000000000000000000090
:100070000000000000000000000000000000000080
:10008000EB04180A063204260000000000000000FD
:10009000050404240000000000000000000000002F
:1000A0000000000000000000000000000000000050
:1000B0000604000000000000000000000000000036
:1000C0000000000000000000000000000000000030
:1000D00020041808000000000000000000000000DC
:1000E0000000000000000000000000000000000010
:1000F0000000000000000000000000000000000000
:1001000000000000000000000000000000000000EF
:100110000204180804200000000000000000000095
:1001200000000000000000000000000000000000CF
:10013000600400000000000000000000000000005B
:1001400000000000000000000000000000000000AF
:10015000000000000000000000000000000000009F
:10016000000000000000000000000000000000008F
:10017000000000000000000000000000000000007F
:10018000000000000000000000000000000000006F
:10019000000000000000000000000000000000005F
:1001A000000000000000000000000000000000004F
:1001B000000000000000000000000000000000003F
:1001C000000100000010000001000000000000001D
:1001D000000000000000000000000000000000001F
:1001E000000000000000000000000000000000000F
:1001F00000000000000000000000000000000000FF
:10020000D4D4D4D4D4D4D4D4D4D4D4D4D4D4D4D4AE
:10100000D10020400020006000000000000000002F
:1010100020100060001000600000000000000000D0
:1010200000000060A028010000000000EFBEADDE5F
:10103000124880F3088812481249016000F036F81F
:10104000114812490022814201D004C0FBE7104838
:101050001049114A814202D008CA08C0FAE70F4875
:101060004FF47001026842EA01020260BFF34F8F41
:10107000BFF36F8F00F014F800DE00000040002086
:1010800008ED00E00040002000500020A88500206E
:10109000B84200204C440020A028016088ED00E008
:1010A00041F6872CC0F2000C6047D4D41C4840F2B3
:1010B000924188420CBF1B4A1B4A1C4B5360136869
:1010C00023F0800313601A481A4901BF1A480A0C1A
:1010D0008264C1F30F014164016C41F004010164B9
:1010E0001648174A824205D01649814202D008CAE2
:1010F00008C0FAE71448154A824205D014498142D3
:1011000002D008CA08C0FAE71248134A824205D042
:101110001249814202D008CA08C0FAE770470000AD
:10112000240400000080034000C00B4020C528D9E3
:1011300000C00A40AAAAFAFF00400E4000000000CA
:10114000B822006020E00000004000200020006085
:10115000B842002000002020D8020160C8252020CD
:10116000D4D4D4D4D4D4D4D4D4D4D4D4D4D4D4D43F
:10117000D4D4D4D4D4D4D4D4D4D4D4D4D4D4D4D42F
:10118000D4D4D4D4D4D4D4D4D4D4D4D4D4D4D4D41F
:10119000D4D4D4D4D4D4D4D4D4D4D4D4D4D4D4D40F
:1020000000400020311000608B42000007E000001B
:102010008B4200008B4200008B4200000000000059
:102020000000000000000000000000008B420000E3
:102030008B420000000000008B420000911D000058
:102040008B4200008B4200008B4200008B4200005C
:102050008B4200008B4200008B4200008B4200004C
:102060008B4200008B4200008B4200008B4200003C
:102070008B4200008B4200008B4200008B4200002C
:102080008B42000000000000000000000000000083
:102090008B4200008B4200008B4200008B4200000C
:1020A0008B4200008B4200008B4200008B420000FC
:1020B0008B4200008B4200008B4200008B420000EC
:1020C0008B4200008B4200008B4200008B420000DC
:1020D0008B4200008B4200008B4200008B420000CC
:1020E0008B4200008B4200008B4200008B420000BC
:1020F0008B4200008B4200008B4200008B420000AC
:102100008B4200008B4200008B4200008B4200009B
:10211000000000008B420000000000008B42000025
:102120008B4200008B4200008B4200008B4200007B
:102130008B4200008B420000000000008B42000038
:102140008B4200008B4200008B4200008B4200005B
:102150008B4200008B4200000000000000000000E5
:102160008B4200008B4200008B4200008B4200003B
:102170008B4200008B4200008B4200008B4200002B
:102180008B4200008B4200008B4200008B4200001B
:102190008B4200008B4200008B4200008B4200000B
:1021A0008B4200008B4200008B4200008B420000FB
:1021B0008B4200008B4200008B4200008B420000EB
:1021C0008B4200008B4200008B42000000000000A8
:1021D0008B4200008B4200008B4200008B420000CB
:1021E0008B4200008B4200008B4200008B420000BB
:1021F0008B4200008B4200008B4200008B420000AB
:102200008B420000AD1200008B4200008B420000A8
:102210008B4200008B4200008B4200008B4200008A
:102220008B4200008B4200008B4200008B4200007A
:102230008B4200008B4200008B4200000000000037
:10224000000000008B4200008B4200008B42000027
:102250008B4200008B4200008B4200008B4200004A
:102260008B4200008B4200008B4200008B4200003A
:102270008B4200008B4200008B4200008B4200002A
:102280008B4200008B4200008B4200008B4200001A
:102290008B4200008B4200008B4200008B4200000A
:1022A0008B4200008B4200008B42000000000000C7
:0822B0008B4200008B4200008C
:1022B800F0B503AF2DE9000F85B004468868002803
:1022C80040F0848092F821B04FF0FF3001F10C0605
:1022D8008860002091468846CDE9000B0290304680
:1022E80000210122002304F0A0FE8A46D8F8081035
:1022F800C00701F10101C8F808106DD1002965D1A6
:102308004FF0FF308021C8F808000020CDE9000B0D
:10231800012202903046802304F087FED8F8082076
:10232800C00702F10102C8F8082069D1D8F80000F6
:10233800002879D14FF0FF30002A0391C8F8000037
:1023480078D1C8F80800304604F0E8FED8F808004C
:102358000130C8F8080073D34FF0FF308021C8F867
:10236800080004F12400BFF35F8FC8F84460BFF38E
:102378005F8F0DF029FCC4F8DC6004F1B400B9E803
:102388006E006EC099E86E006EC000200399A177B8
:1023980008F14401A161E160042184F8E200C4E984
:1023A8002B00C4F8A400A4F81F00A4F81CB0A4F8DB
:1023B800130084F812A0A4F810B02080A4F8E31049
:1023C800A4F8E00005B0BDE8000FF0BD40F26000E1
:1023D800C2F220000BF0DDF840F2F41040F2701366
:1023E800C2F22000A7F11E02009040F2B000C2F233
:1023F8002000C2F22003202107F81EAC0BF08DFA52
:1024080040F2E41040F27013C2F22000A7F11D025E
:10241800009040F2B00007F81D1CC2F22000C2F282
:10242800200320210BF079FA40F29000C2F220003C
:102438000BF0AFF840F28000C2F220000BF0A9F8D0
:1024480040F27000C2F220000BF0A3F8F0B503AF21
:102458002DE9000F85B005460868002840F0AA80DD
:10246800002091F804B008600C4688680BF101015F
:102478002171002840F098804FF0FF3004F10C06DD
:102488009146A060FF20082103220290CDE9002197
:10249800304680210022802304F0C7FD8A46A168C7
:1024A800C00701F10101A16040F08A80206800287E
:1024B80040F0808094F8048000200029206008F112
:1024C8000102227170D14FF0FF310022A160022178
:1024D800CDE90019002102903046002304F0A5FD43
:1024E800A268C00702F10102A2607DD1002A03910F
:1024F8005AD14FF0FF300021A0600220CDE9000939
:102508003046029180210022802304F08EFDC0070E
:1025180001BF85F82CB085F82D8040F2FF30A5F872
:102528000F0001BF85F80EA00820A88104F144021D
:1025380001BFAA604FF40073A5F8273085F826106C
:1025480001BFA5F824902A62A5F81B30039901BFA2
:10255800A976A5F818906A614FF4FA5101BF29606D
:10256800A1680022AA7101BFA880EA85481CA06062
:1025780002BF05B0BDE8000FF0BDA06840F27013BF
:10258800A7F11D0207F81D1C0130A06040F21420BD
:10259800C2F22003C2F220000F21009040F2042072
:1025A800C2F220000BF0B9F940F26000C2F220003C
:1025B8000AF0EFFF40F2A000C2F220000AF0E9FFA3
:1025C80040F2242040F27013C2F22000A7F11F024B
:1025D800009040F20420C2F22000C2F220030F2132
:1025E80007F81FAC0BF099F940F2142040F2701371
:1025F800C2F22000A7F11E02009040F2042007F862
:102608001E1CC2F22000C2F220030F210BF085F934
:102618007047007840F2D0020B4640F28831C2F28F
:102628002001C2F2200251F8201052F8202018464A
:102638000CF088BA084640F27431C2F22001122226
:102648000CF080BAF0B503AF2DE9000B154604462F
:1026580000791268022801D11AB959E0002A56D027
:1026680008B320680668706910F4705F40F0BE8097
:10267800C00714D1706910F4705F40F0B780C007CC
:102688000DD1706910F4705F40F0B080C00706D1BA
:10269800706910F4705F40F0A980C007E3D0480269
:1026A80004F08CF83066A86858B36D68D4F80090C8
:1026B80005EB0008D9F80060706910F4705F40F00D
:1026C8009580C00714D1706910F4705F40F08E8057
:1026D800C0070DD1706910F4705F40F08780C007A3
:1026E80006D1706910F4705F40F08080C007E3D0B5
:1026F80015F8010B0002023004F060F84545306619
:10270800D8D1002222710020BDE8000BF0BDF8B935
:1027180020680668706910F4705F67D1C00711D12E
:10272800706910F4705F61D1C0070BD1706910F443
:10273800705F5BD1C00705D1706910F4705F55D127
:10274800C007E7D048000130000204F037F83066CF
:10275800D5F80890B9F1000F51D0D4F80080D8F816
:102768000060706910F4705F40D1C00711D17069C2
:1027780010F4705F3AD1C0070BD1706910F4705F24
:1027880034D1C00705D1706910F4705F2ED1C0072D
:10279800E7D04FEA0920033004F010F86968306682
:1027A80001EB0900D8F80020536913F4705F2CD1AD
:1027B800136F5E0414D5536913F4705F25D1136F3A
:1027C8005E040DD5536913F4705F1ED1136F5E0458
:1027D80006D5536913F4705F17D1136F5E04E3D401
:1027E80001F8013B01228142DCD18BE747F60371F6
:1027F800C0F2003101400120BDE8000BF0BD01220C
:1028080022710020BDE8000BF0BD47F60370C0F24E
:10281800003003EA00010120BDE8000BF0BDF0B56F
:1028280003AF2DE9000FABB08A46044601F134002E
:1028380038310AF1540203F041FCDAF82801016842
:1028480041F001010160DAF82811086820F002005F
:1028580008600020C1F80801C1F81801C1F8280172
:102868001491C1F83801DAF8C0B0DBF8000020F0A4
:102878000100CBF80000DBF8000040F40040CBF882
:102888000000DBF8000000040CD5DBF800000004B1
:1028980044BFDBF800005FEA004003D5DBF8000026
:1028A8000004EED43F20CBF80800DBF8000020F04D
:1028B8000100CBF80000DAF8C450286820F00100C5
:1028C8002860286840F4004028602868000409D57A
:1028D8002868000444BF28685FEA004002D52868D9
:1028E8000004F2D43F2040F26341A860286820F039
:1028F80001002860DAF80060DAF85C011390B06C27
:1029080040F00100B064706C08437064706C012181
:1029180061F383007064706C20F080007064B06CA8
:1029280040F02000B064706C40F440407064706CFB
:1029380040F444707064B06C40F08000B064B06DD6
:10294800000709D0B06D00071CBFB06D5FEA0070CA
:1029580002D0B06D0007F2D1B06C40F2634140F094
:102968002000B064706C20F440407064706C20F4F7
:10297800447000F588707064DAF80480D8F848006C
:1029880040F00100C8F84800D8F844000843C8F8E7
:102998004400D8F84400012161F38300C8F84400DA
:1029A800D8F8440020F08000C8F84400D8F848005F
:1029B80040F02000C8F84800D8F8440040F44040EF
:1029C800C8F84400D8F8440040F44470C8F84400FB
:1029D800D8F8480040F08000C8F84800D8F85800F7
:1029E80000070CD0D8F8580000071CBFD8F85800CA
:1029F8005FEA007003D0D8F858000007EED1D8F885
:102A0800480002220F2340F02000C8F84800D8F8F8
:102A1800440020F44040C8F84400D8F8440020F4AA
:102A2800447000F58870C8F84400DAF87C1115A8DD
:102A380003F023FEDAF8681127A84FF4805203F058
:102A4800E4FDDAF89C001290DAF8A4001190DAF8A4
:102A5800A8000D90DAF8AC000C90DAF884010B901D
:102A6800DAF890010A90DAF89801DAE91712069074
:102A780004F5907003F067FEDAF83091DAF888E030
:102A880009F59070606709F1C0002067DAE90D0167
:102A980009F16003DAF81421CDE90F100F21DAF8F3
:102AA80054000E90DAF880000990DAF8840001905A
:102AB800DAF8E0000590DAF8E8000490DAF8FC00AB
:102AC8000390DAE940C00890DAF808010790DAF8CC
:102AD8000C010090DAF81C0102904FF47040A9F83C
:102AE8008C01C4E91999A9F88E114FF00F09E36612
:102AF800DAF8343103F59071C4F8881003F1C00195
:102B0800C4F88410A3F88C0103F16001C4E91E33F2
:102B1800A3F88E91C4F88010DAF8381101F5907393
:102B2800C4F89C3001F1C003C4F89830A1F88C01B6
:102B3800C4E92311A1F88E916031C4F89410DAF831
:102B48003C1101F59073C4F8B03001F1C003C4F82A
:102B5800AC30A1F88C0101F16000C4F8A800C4E908
:102B68002811A1F88E911399C4E904B501F1340034
:102B78005031C4E93068C4E9C81015A90698206323
:102B88000A98E0620B98A0620C9860620D98206227
:102B98001498C4F8BCE0C4F860C0C4E90000C4E9F3
:102BA80002001298A0611198E0610198C4F8B80079
:102BB8000998C4F8B40005982064049860640398E0
:102BC800C4E91202482200982065089860650798B1
:102BD800A0650298E0650E98E0630F98A0631098CE
:102BE800606304F1C8000DF0C4F927AB04F5887CD4
:102BF8000FCB8CE80F002BB0BDE8000FF0BDD0B5AF
:102C080002AF84B00446684603F04EFA48F2141244
:102C18004FF0010CC4F21F02204653686CF3030303
:102C28005360536843F010035360D2F8F43143F40F
:102C38000063C2F8F4310223C2F8C83314686CF395
:102C480003041460146844F010041460D2F8F041CE
:102C580044F40064C2F8F041C2F8CC33036102695D
:102C6800920737D49DF809209DF80A409DF808106E
:102C780002F03F029DF80B3061F30D2204F03F0192
:102C880042EA014103F03F0241EA02618164416A7C
:102C9800DDE9002321F007019DF80C409DF80DE0C7
:102CA800114441624FF07061826A01EA04614FF297
:102CB80000046EF31341CFF2F004224011446FF385
:102CC8001F33194481624FF001118165C0F810C0AB
:102CD80004B0D0BD0022026103699B07C2D502611E
:102CE80003699B0742BF026103695FEA8373B9D531
:102CF800026103699B07EED4B4E7006803F060BE85
:102D0800CA690068D30648BF0CF092BC920658BF47
:102D18000CF05DBD0CF0C2BCF0B503AF2DE9000F9F
:102D280081B080460C6806F0B3FBD8F800603168C3
:102D3800451AB5F1FF3F04DDE80F01B0BDE8000F0B
:102D4800F0BDD8F80400D0F800B0DBF80000002887
:102D5800F2D1D4E90010096888470446DBF800007E
:102D68008946366800281EBFC168DBF8040088471A
:102D78000020D8F808A0CBF810008BF80C00CBE99D
:102D88000049CBF8086006F0C3FBBFF35F8FDAF8A1
:102D9800001009B38B68DBF80820D31A1AD40B6922
:102DA8008BB39E68961B26D4196931B38E68961B1F
:102DB80025D40B693BB39E68961B1CD41969E1B1F5
:102DC8008E68961B1BD40B69EBB19E68961B1E463A
:102DD800EAD516E0CBF81010CAF800B006F0A3FB4D
:102DE800D8F80C00C0F800B006F06AFBE80F01B094
:102DF800BDE8000FF0BD1E4603E0194603E00E468D
:102E08001946CBF81060C1F810B006F08CFBD8F862
:102E18000C00C0F800B0E80F01B0BDE8000FF0BD2D
:102E2800F0B503AF2DE9000786B006680D4647F6F2
:102E380003791446C0F20039716901F04072B2F1A9
:102E4800007F06D101EA0901012006B0BDE80007AC
:102E5800F0BD316941F4407131614FF4FE41716157
:102E68004FF002018DF808100190BBB103EB43004D
:102E78000DF104080DF10C0A04EB800694E8070034
:102E880003AB07C3404629465246FFF7DBFB002841
:102E98003FD10C34B442F1D101980668706910F43E
:102EA800705F34D1C00711D1706910F4705F2ED1F2
:102EB800C0070BD1706910F4705F28D1C00705D125
:102EC800706910F4705F22D1C007E7D0042003F0C6
:102ED80075FC3066706910F4705F18D1C00511D4A4
:102EE800706910F4705F12D1C0050BD4706910F4CA
:102EF800705F0CD1C00505D4706910F4705F06D1FD
:102F0800C005E7D5002006B0BDE80007F0BD00EA1F
:102F18000901012006B0BDE80007F0BDF0B503AF18
:102F28002DE9000FDFB048F23416D0F800C0C2F225
:102F38000006D0F808E046F200003260C2F2000055
:102F480041F238128618BFF35F8F56E8002F42F01F
:102F5800004546E80054002CF7D1B2F1FF3FBFF31B
:102F68005F8F40F3538145F204080124C2F2000840
:102F780008F5A066BFF35F8FD6E84F5FC6E8424FFB
:102F8800002AF9D10093002DBFF35F8F40F04981EB
:102F98008A4641F238110144539000F5865200F5F3
:102FA80080500DF5A679599106214FF0000BCDE917
:102FB800541048465891CDE956120121CDE95C8656
:102FC800CDE95ACEADF878B104F063FEB9E87E00D9
:102FD8000DF1040808F104007EC099E87E007EC067
:102FE800012051468DF838004046CDF804B003F072
:102FF80026FE9DF8380010B30198002840F01C8187
:103008004FF0FF3053AD01900020539000980668B0
:1030180008F120005490284604F0E0FC284604F00B
:1030280025FD2846514604F02DFD2846012104F0CF
:10303800EDFC2846314604F0F7FC284651E006F03E
:1030480084FA054606F074FA0198E90728D10028A1
:1030580040F0F2804FF0FF3053AE019000205390C3
:103068000098056808F120005490304604F0B6FC3A
:10307800304604F0FBFC3046514604F003FD304670
:10308800012104F0C3FC3046294604F0CDFC30464B
:1030980004F0B0FC01980130019006F04BFA25E0ED
:1030A800002840F0C9804FF0FF3053AE0190002057
:1030B80053900098056808F120005490304604F0B9
:1030C8008DFC304604F0D2FC3046514604F0DAFC60
:1030D8003046012104F09AFC3046294604F0A4FC4D
:1030E800304604F087FC01980130019048F2000A4C
:1030F8004FF00009C2F2000A4FF48060AAF80400F9
:103108004146CAF808900AF10C00CAF800905CC958
:103118005CC07CC97CC091E87C0051467CC04046BC
:103128004FF40072CAF84490FFF790F9B8E87E00AF
:1031380048F23810C2F200007EC098E87E007EC0D7
:1031480032200FACCDF846010220C4F2000049AA93
:10315800CDF842011020ADF8400145F62400C2F236
:10316800DD7051464F9009204C9040F2B840C2F2B1
:103178002000CDF834914B902046CDF82491FFF7EC
:1031880097F8469D8121284603F0A8FD284601218D
:1031980003F0A4FD2846822103F0A0FD2846022161
:1031A80003F09CFD2846832103F098FD284603215F
:1031B80003F094FD2846842103F090FD284604215D
:1031C80003F08CFD2846852103F088FD284605215B
:1031D80003F084FD2846862103F080FD2846062159
:1031E80003F07CFD2846872103F078FD2846072157
:1031F80003F074FD48F248002146C2F20000E822BC
:103208000CF0B7FE5FB0BDE8000FF0BD40F218400B
:1032180040F29842C2F22000C2F220021F210AF0B6
:10322800F6F940F2101040F2A842C2F22000C2F2B1
:10323800200220210AF0EBF940F20840C2F22000F7
:103248000AF0A7F9F0B503AF2DE9000B804606F0A8
:103258003FF910E02069C8F80000D4E900100968B7
:1032680088470646207B05F00100894606F05BF991
:1032780071684846884706F04BF9BFF35F8F0546EB
:10328800D8F80040CCB1A66806F002F9A168401A47
:103298000021B0F1FF3FC8BF012100282173D9D513
:1032A80005F0010006F03FF906F0F2F8801BB0F1D6
:1032B800FF3FE0DCBDE8000BF0BD2846BDE8000B91
:1032C800BDE8F04006F02FB9F0B503AF2DE9000BCB
:1032D80086B0044690F860008846B0B1032840F0F4
:1032E800F28094F85C00D8B1032840F0F28094F89A
:1032F800591004F11400002968D0032940D040F285
:103308004060C2F220000CF06EF9256848F2985629
:103318000020C2F2000684F85C00C4E9016501E0FF
:10332800D4E901654FF0000906F0B2F8014684F8C7
:10333800599066654219002D18BF511CC4E9030154
:1033480004F11400E162224642F8301F002182F89D
:1033580028103379002B00F0A4802346012543F878
:10336800341F83F824501D4645F81C1F03F118012B
:10337800C3E9053343E9082143E9066543E90465E0
:103388004146FFF7C9FC814608B103204CE0A06C18
:10339800016849B1007B00281CBF002084F8580050
:1033A80094F8580000BB35E00021D4E9096084F89E
:1033B8005810D0F8008006F0ABF8BFF35F8F316883
:1033C80069B10A69884504D1326008E0E16A666D2E
:1033D800B9E722B1904548D113461A690A6106F047
:1033E800A2F894F85800A8B1D4E90950066806F084
:1033F8008FF8BFF35F8F296851B10A698E4201D1F6
:103408002A6005E022B1964219D113461A690A6169
:1034180006F089F8002084F85800606B00281EBF69
:10342800C168A06B8847012084F8600084F85C00BC
:1034380084F85900484606B0BDE8000BF0BD116994
:103448000029E5D08E4226D00A69002AE0D09642AB
:10345800DBD011690029DBD08E421CD00A69002A12
:10346800D6D096421346EAD1D0E711690029B6D0E2
:10347800884513D00A69002AB1D09045ACD01169AB
:103488000029ACD0884509D00A69002AA7D0904500
:103498001346EAD1A1E70B461146B7E70B4611469A
:1034A8009BE701200491019040F2C850C2F220002D
:1034B800039140F2306100900420C2F22001029092
:1034C80068460AF053F940F22850C2F220000CF086
:1034D8008AF840F25060C2F220000CF084F80846E6
:1034E80040F23851C2F2200102220BF085B845F2B1
:1034F80000000121C2F200000068BFF35F8F80F86E
:10350800A91070477047704780B56F4684B00A4667
:10351800017889B10130039040F2645040F2505173
:10352800C2F2200003AB00901046C2F22001142220
:103538000BF00CFB04B080BD0430029040F2405008
:1035480040F23A51C2F22000C2F220010090104627
:1035580002AB03220BF0FAFA04B080BD80B56F46C7
:1035680042F2E850C2F22000006880470020BDE81F
:10357800804005F0EDBFD4D480B56F4696B0B7EE65
:1035880000AA45F2000ABFEE00BA41F23F2803AC98
:103598009FEDD08A9FEDD09AC2F2000A4FF0000B3F
:1035A800C0F2000801E0BFF32F8FDAF8009099F815
:1035B800A8000028F9D009F1A900D0E84F1F012977
:1035C800F1D1C0E841BF0029F7D141F2DC50BFF387
:1035D8005F8FC2F22000CDF81080039099F8340074
:1035E800CDF81CB0CDE90544DFE810F00600A403CF
:1035F800A4030A012E002100494609F1140091E8AC
:103608007C007CC0182203AC89F830200022D9E95C
:103618000801C4F2F012C9E90A210122D0E9000127
:1036280001F01F0102FA01F1C0F8841019E04E46BA
:1036380016F8400FDFE810F0050071037E035C0206
:103648007902D9F83800C8E14E4616F8400FDFE88D
:1036580010F005006403710352016E01D9F83800B7
:10366800F1E005F015FF47F6D501C2F2E9614843DC
:1036780041F26F21C0F283014FEAB000884280F026
:10368800D38000F08EFD99F830100646000CADF896
:1036980030B08DF82800300E032880F04483159050
:1036A8000CA8D9F82C200125CDE913B00AA80223CB
:1036B8001295CDE91050104610AAFFF7B1FB30B3B0
:1036C80048F29450CDE90AB1C2F20000006800281F
:1036D80000F09180012040F62401119040F22C72F4
:1036E80013900CA8129041F25920C0F20000C2F2C7
:1036F80020010D900AA8109101210C9010A8CDF876
:1037080050B0C2F22002CDF800B0A12371E04FF60C
:10371800FF71BDF8300026EA01010844099009A8A4
:10372800032100F042FDD9F8140088228DED0A0A21
:103738000126D0E9001000F01F0099ED0A1AB4EE36
:10374800410A05FA00F0F1EE10FAC8BF8422885049
:1037580048F29450C2F200000068022824D90321DC
:1037680009F12800119140F2DC71C2F2200140F207
:103778002C721091022113910CA912914DF25D3116
:10378800C0F20001C2F22002CDE90D100AA80C9087
:1037980010A80F9103219C23CDF850B0CDF800B0AC
:1037A80005F00FFE9DED0A0AB4EE480AF1EE10FA94
:1037B80004DBB4EE490AF1EE10FA1CD948F2945031
:1037C800C2F200000068B0B140F6140040F22C725A
:1037D800C2F22000012110900420129010A8C2F219
:1037E80020029E23CDF850B01196CDF84CB0CDF8FC
:1037F80000B005F0E6FD012089F898B0C9F8380056
:1038080009F1380005A9FFF75FFD08B103215BE165
:1038180099F89800032807D199F89400032804BF61
:1038280099F8910003281DD0D9F81800D0E90012A2
:1038380002F01F028968D140C90707D04E4606F832
:1038480040BF46F8080CC9F83C0047E0D9F81C000E
:10385800D0E9001202F01F028968D140C90740F080
:10386800B780FEE6D9E91760D0F8008005F050FE71
:10387800BFF35F8F3168E1B10A69884501D13260D1
:1038880017E0B2B19045134611D0116989B1884546
:1038980009D00A696AB1904508D0116949B18845CB
:1038A80001D00A69EDE70B46114600E013461A6994
:1038B8000A6105F038FED9F86C0041F23F2889F812
:1038C80090B0C0F2000800281EBFC168D9F8700087
:1038D8008847A9E7000020C20000FA42D0E90001A9
:1038E80001F01F018068C840C0071BD0142089F868
:1038F800A4B0C9F8440009F1440005A9FFF7E4FCA5
:1039080008B103201AE099F8A400032807D199F810
:10391800A000032804BF99F89D00032870D0D9F8A7
:103928003C00DBE71E2089F8A4B0C9F8440009F17F
:10393800440005A9FFF7C8FC18B104200421307021
:10394800C2E099F8A400032807D199F8A000032839
:1039580004BF99F89D00032842D099ED0A0A012076
:1039680089F8400048F2945030EE0B0AC2F2000089
:1039780089ED0A0A006803281FD3022109F12800EB
:10398800119140F64801C2F2200140F22C721091C8
:10399800012113910CA912914DF25D31C0F2000181
:1039A800C2F22002CDE90C0110A80321AB23CDF807
:1039B80050B0CDF800B005F004FDD9F81C00D0E9EE
:1039C800001202F01F028968D140C90700F0F38095
:1039D8004E4606F840BF46F8080CC9F83C007AE0A5
:1039E800D9E91A60D0F8008005F092FDBFF35F8F27
:1039F8003168002942D00A69884512D132603DE019
:103A0800D9E91A80046805F083FDBFF35F8FD8F801
:103A18000010002946D00A698C4214D1C8F8002049
:103A280040E05AB39045134626D0116931B3884512
:103A38001BD00A6912B390451DD01169F1B18845B0
:103A480013D00A69EDE76AB39442134628D0116986
:103A580041B38C420CD00A6922B394421FD0116939
:103A680001B38C4204D00A69EDE70B46114603E026
:103A78000B46114614E013461A690A6105F053FD16
:103A8800D9F8780041F23F2889F89CB0C0F20008C4
:103A980000281EBFC168D9F87C0088475DE7134637
:103AA8001A690A6105F03FFDD9F8780041F23F280C
:103AB80089F89CB0C0F20008002803AC1EBFC1689A
:103AC800D9F87C0088472AE7DDE9032089F8341013
:103AD800D168884769E5D0E9000101F01F018068D5
:103AE800C840C0071CD0142089F8A4B0C9F8440005
:103AF80009F1440005A9FFF7E7FB08B103201BE023
:103B080099F8A400032808D199F8A000032804BF55
:103B180099F89D00032800F08C80D9F83C00DAE77A
:103B28001E2089F8A4B0C9F8440009F1440005A989
:103B3800FFF7CAFB18B1042030700521C4E799F8D3
:103B4800A400032807D199F8A000032804BF99F816
:103B58009D0003287ED099ED0A0A012089F84000CB
:103B680048F2945030EE0A0AC2F2000089ED0A0ABF
:103B7800006803281FD3022109F12800119140F29F
:103B88000C71C2F2200140F22C72109101211391A4
:103B98000CA912914DF25D31C0F20001C2F220026F
:103BA800CDE90C0110A80321B123CDF850B0CDF810
:103BB80000B005F006FC99ED0A0AB4EE480AF1EEE9
:103BC80010FA05DBB4EE490AF1EE10FA7FF649ADBA
:103BD80048F29450C2F2000000680228FFF441AD98
:103BE800032040F2AC71119040F28870C2F22000BC
:103BF800C2F220011090022013900CA812904DF2EE
:103C08005D30C0F2000040F22C72CDE90D010221B6
:103C18000F9040F2A870C2F22000C2F220020C906D
:103C280010A8B423CDF850B0CDF800B005F0C9FB0A
:103C380017E5D9E91A80046805F06AFCBFF35F8FBD
:103C4800D8F80010002942D00A698C4212D1C8F86D
:103C580000203CE0D9E91A60D0F8008005F058FC53
:103C6800BFF35F8F3168002946D00A69884513D1B0
:103C7800326041E05AB39442134626D0116931B3F9
:103C88008C421BD00A6912B394421DD01169F1B15C
:103C98008C4213D00A69EDE772B39045134629D0D8
:103CA800116949B388450CD00A692AB3904520D0D8
:103CB800116909B3884504D00A69EDE70B46114636
:103CC80003E00B46114615E013461A690A6105F030
:103CD8002AFCD9F8780041F23F2889F89CB0C0F254
:103CE8000008002803AC1EBFC168D9F87C008847CB
:103CF80013E713461A690A6105F015FCD9F878002C
:103D080041F23F2889F89CB0C0F2000800281EBF85
:103D1800C168D9F87C0088471DE740F26C60C2F2A0
:103D280020000BF060FC40F264320221C2F2200253
:103D38000AF086FFFEDE80B56F46B2B005F0F8FBEC
:103D480048F2A4500121C2F2000048F2A8540170C0
:103D58004EF27140CEF20000F02101704EF20C10CC
:103D6800CEF200004FF4003101600020ADF8AC0045
:103D780045F20000C2F2000001A9016044F200000F
:103D8800C2F20004C2F20000A04203D905F0DAFB37
:103D9800A04203D900F015F8FFF7EEFB012100203F
:103DA8002D9140F68401C2F2200130902F9004201A
:103DB8002C9140F68C012E902CA8C2F2200109F01B
:103DC800D5FCF0B503AF2DE9000FADF2045DD0AC22
:103DD800204601F0B0FF06A82146FEF720FD0D9809
:103DE80005231799059048F23C100291C4F21F0070
:103DF800DDE91089129DD0F8F0114FF44051C0F858
:103E0800F011026863F303020260DDF814B0DBF816
:103E1800042022F00102CBF80420D0F8F821C0F8E1
:103E2800F811816863F303018160DDF814A0DAF802
:103E3800041021F00401CAF80410416863F3030177
:103E48004160DAF8040040F00200CAF8040005A84E
:103E580002F01AF9CDE903100020D2900420D19085
:103E68000320D0904FF47A6047F8200C48F278107D
:103E7800C2F20000012200F21240BFF35F8FD0E8C7
:103E88004F1FC0E8432F002BF9D1BFF35F8F31BB21
:103E980048F278164FF48061C2F2000630460BF003
:103EA80093FE05F035FBD0A90446304601F025FF06
:103EB80090B948F2781206A8A7F12003C2F20002CE
:103EC80001210895CDE90689FFF728F842F60B3954
:103ED8004FF00008C0F20009204605F024FBB8F1B5
:103EE800000F40F0998045F20000C2F2000000681F
:103EF80000F1A801D1E84F2F4AB90122BFF35F8F23
:103F0800C1E8432FB3B1D1E84F3F002BF8D040F2BE
:103F1800B86040F2A863C2F22000BFF32F8F009070
:103F280040F27C60C2F22000C2F2200306AA2B21D4
:103F380009F0F3FCBFF35F8F002142F2E05242F236
:103F4800D85342F2D05542F2C85680F8341042F2A3
:103F5800EC51029CC2F22001C2F22002C2F22003FC
:103F6800C2F22005C2F2200601614FF00108C0E943
:103F780000650121C0E90232BFF35F8F80F8A98094
:103F88002046FEF73CFE4EF21000CEF2000001681B
:103F980021F001010160016841F00401016042F271
:103FA800BF71C0F209014160016841F0020101607E
:103FB800016841F00101016048F29850BFF35F8F3A
:103FC800C2F2000080F80480BFF35F8FDDE90310C0
:103FD800C6E9000142F2D8510020C2F22001C5E929
:103FE80000B00220C1E900A042F2E050C2F2200075
:103FF800C0E900A842F2E850C2F22000C0F80090E0
:1040080042F2EC50C2F22000046005F093FA0DF27F
:10401800045DBDE8000FF0BD40F2D86040F2C8630F
:10402800C2F220000895009040F27C60CDE9068934
:10403800C2F22000C2F2200306AA2B2109F06DFC6F
:1040480048F29850C2F20000FFF7FCB8006809F087
:10405800E6BA80B56F468CB0039044F2B820C2F23D
:1040680000000021D0E84F2FC0E8431F002BF9D1F2
:1040780012B348F29450C2F200000068E0B1012186
:1040880040F270720591002007910AA9069141F645
:104098009D51C2F22002C0F20001049240F60C12B7
:1040A8000B9103A90890C2F22002009004A80A917B
:1040B8000121C92305F085F900F000F880B56F46A5
:1040C80048F248100521C4F21F004BF2004301607A
:1040D8003821C0F8F0114CF26C00C4F20A0041F625
:1040E800004E01684EF6004CC0F2C443C0F64E6E56
:1040F80021F0080101604CF28400C2F2601CC4F295
:104108001B0050F8801C41F0080140F8801C082171
:1041180001601A46013AFDD141601A46013AFDD1C3
:1041280001601A46013AFDD141601A46013AFDD1B3
:1041380001601A46013AFDD141607246013AFDD14B
:1041480001607246013AFDD141601A46013AFDD13B
:1041580001607246013AFDD141601A46013AFDD12B
:1041680001607246013AFDD141607246013AFDD1C3
:1041780001601A46013AFDD141601A46013AFDD163
:1041880001601A46013AFDD141601A46013AFDD153
:1041980001601A46013AFDD141606246013AFDD1FB
:1041A800B6E70020C0F205207047C278022A25D35E
:1041B800027840781301D20643EA101C81F0030309
:1041C80000F00F00DBB220FA03F000EE100A5FFAED
:1041D8008CF048BFC0F58070B8EE401A00EE100AA7
:1041E800C8B240F27821B8EEC00AC2F2200101EB51
:1041F800800090ED002A02EE010A704780B56F46F4
:1042080040F68C10C2F2200009F0F7F9D0B502AFE1
:1042180084B00188062911D181690968BFF35F8FCD
:1042280079B10023827F009302AB0446184601232C
:1042380002F0D7FF0820208004B0D0BD072004B0CA
:10424800D0BD40F6342040F6BC22C2F22000C2F2B3
:104258002002222109F09BFAF0B503AF4DF804BD06
:1042680086B0044608880D46411E032927D3052831
:1042780025D0072832D1D5F8AC00D5F806306989A1
:104288008128D5F80220ADF80C10CDE901236BD2B6
:10429800E9680968BFF35F8F00295AD0C0F180032D
:1042A800AA7C2844009300F1240304A803F08DF8A5
:1042B8009DF81000C0B39DF81100D8B92EE0E86849
:1042C8000168BFF35F8F002943D0AA7C04A80026A9
:1042D8000123009603F079F82E801FE0E868016852
:1042E800BFF35F8FA9B30020AA7C009004A8012324
:1042F80003F06BF8E868092129800068BFF35F8F35
:1043080038B3A97C012203F054F9A8690068BFF307
:104318005F8FF0B1A97F012203F04BF9042060728E
:1043280006B05DF804BBF0BD0598D5E92B1208442A
:10433800C5F8AC009042F1D3DDE901010623BDF8D0
:104348000C202B8020606160228106B05DF804BBE0
:10435800F0BD40F6342040F6BC22C2F22000C2F282
:104368002002222109F013FA40F604228021C2F229
:1043780020020AF042FCF0B503AF2DE9000F85B02A
:104388000446C8680D460168BFF35F8F002900F036
:104398008B8005F124068020AA7C009002A8334671
:1043A80003F013F89DF8080018B19DF8090060B9EA
:1043B80021E0039A812A80F0828002A8314604F025
:1043C8008AFB9DF8110004281BD1E868092129807F
:1043D8000068BFF35F8F002866D0A97C012203F034
:1043E800E8F8A8690068BFF35F8F00285CD0A97F50
:1043F800012203F0DEF80420607205B0BDE8000F6A
:10440800F0BDE868BDF810A09DF80F609DF80E900B
:10441800BDF80CB0DDF808800068BFF35F8F002896
:1044280042D0A97C002203F0C4F8BEB10420A5F84C
:104438000AA06E7285F80890A5F806B0C5F8028043
:104448002880A4F808A0E67184F80690A4F804B0BF
:10445800C4F8008005B0BDE8000FF0BDBBF1000F47
:1044680011D0BBF1800FB0D80020A5F80AA0C5E98B
:104478002B0B6872072085F80890A5F806B0C5F8D8
:1044880002802880B7E70620A4F808A0288000202A
:10449800C5F8B000E07184F80690A080C4F80080E8
:1044A80005B0BDE8000FF0BD40F6342040F6BC2250
:1044B800C2F22000C2F22002222109F068F940F677
:1044C80014231046C2F2200380211A460AF0B8FBD2
:1044D800B0B502AF84B00446D0E92951D0F8AC0099
:1044E800D4F8B0C0002DA38BAE46ACEB000208BFD9
:1044F80004F1240E9A4238BF1346002D03EB000C3A
:1045080008BF80219C4525D38C452AD8A169096814
:10451800BFF35F8F61B3A27F00930EEB000302A885
:1045280002F05FFE9DF8080008B104B0B0BD039822
:10453800D4E92B120144C4F8AC109142F5D3002100
:10454800A28BC4F8A4100321904208BF0221218045
:1045580004B0B0BD40F624226146C2F220020AF03F
:1045680092FB40F624226046C2F220020AF068FB61
:1045780040F6342040F6BC22C2F22000C2F22002EB
:10458800222109F004F9D4D4B0B502AF84B001886F
:104598000139072939D8DFE801F0041C0A3838380E
:1045A8003832FFF795FF0024204604B0B0BDC1683B
:1045B8000A68BFF35F8F002A41D0817C0546104608
:1045C8000022002402F0F5FF05202880204604B0D0
:1045D800B0BD81690968BFF35F8F81B3827F0546EB
:1045E80002A800240123009402F0FBFD9DF80800B6
:1045F800002804BF03202880204604B0B0BD002155
:1046080001240180204604B0B0BDC168092202809F
:104618000A68BFF35F8F92B1817C0446104601227D
:1046280002F0C7FFA0690068BFF35F8F38B1A17FB0
:10463800012202F0BEFF0024204604B0B0BD40F6BF
:10464800342040F6BC22C2F22000C2F2200222210D
:1046580009F09DF8D0B502AF0446008840F002008A
:10466800062815D1E068092121800068BFF35F8F13
:1046780080B1A17C012202F09CFFA0690068BFF311
:104688005F8F38B1A17F012202F093FF0820D0BDCF
:104698000720D0BD40F6342040F6BC22C2F22000EC
:1046A800C2F22002222109F072F8F0B503AF2DE919
:1046B800000788B004460088042848D1D1E90006DC
:1046C80080228D680021059204F12402069104924B
:1046D8008DF81C100291009101686846B4F80680B4
:1046E80004F0FEFAC1B208292DD18DB106EBC5053B
:1046F800E9464FF0000AD6E90001CA6849469047E2
:10470800C1B208291FD10836CDF808A0AE42F2D1AF
:10471800684604F049FB069880281DD9E0680921FD
:1047280021800068BFF35F8F30B3A17C012202F0C3
:1047380040FFA0690068BFF35F8FE8B1A17F012245
:1047480002F037FF022008B0BDE80007F0BD0720DF
:1047580008B0BDE80007F0BD404538BF80460120DD
:10476800002120802046C4E92B18FFF7B1FE08205D
:1047780008B0BDE80007F0BD40F6342040F6BC2282
:10478800C2F22000C2F22002222109F000F8F0B59E
:1047980003AF2DE9000B8CB00C460188042926D103
:1047A800B0F8069080462430059001A80B9009A81F
:1047B800002115468022079106928DF8201003915A
:1047C8000191099104F098FCC1B208290BD1EE00BF
:1047D80009AD8EB1F4E802010A6929469047083EFE
:1047E800C1B20829F5D00CB0BDE8000BF0BD072018
:1047F8000CB0BDE8000BF0BD09A804F04DFD07980A
:1048080080281DD9D8F80C000922A8F800200068D3
:10481800BFF35F8F28B398F81210012202F0C9FE87
:10482800D8F818000068BFF35F8FD0B198F81E1051
:10483800012202F0BEFE02200CB0BDE8000BF0BD64
:10484800484538BF814640460021C0E92B1901215F
:10485800A8F80010FFF73CFE08200CB0BDE8000BDC
:10486800F0BD40F6342040F6BC22C2F22000C2F26D
:104878002002222108F08BFFB0B502AF8AB00446AF
:104888000088042833D1002080210790A7F10A026C
:104898008DF8200002230390019040F20940069110
:1048A80004F1240127F80A0C01A805910321E588E1
:1048B80004F02FF9C1B2082917D10798802819D90F
:1048C800E068092121800068BFF35F8F00B3A17CF5
:1048D800012202F06EFEA0690068BFF35F8FB8B1D5
:1048E800A17F012202F065FE02200AB0B0BD0720B8
:1048F8000AB0B0BDA84238BF05460120002120807B
:104908002046C4E92B15FFF7E3FD08200AB0B0BD27
:1049180040F6342040F6BC22C2F22000C2F2200247
:10492800222108F034FF0288042A1CBF07207047A0
:10493800F0B503AF4DF804BD4C68802C03D90220B4
:104948005DF804BBF0BD096800F12402C68805467D
:10495800104622460BF00BFB0020B44238BF264617
:10496800C5E92B06012028802846FFF7B1FD08205D
:104978005DF804BBF0BDB0B502AF88B0044600884E
:1049880004282DD1D1E900120020802306908DF84B
:104998001C00029000906846059304F12403E58802
:1049A800049304F0ECFAC1B2082917D106988028BC
:1049B80019D9E068092121800068BFF35F8F00B32F
:1049C800A17C012202F0F5FDA0690068BFF35F8FAA
:1049D800B8B1A17F012202F0ECFD022008B0B0BD01
:1049E800072008B0B0BDA84238BF05460120002105
:1049F80020802046C4E92B15FFF76AFD082008B07F
:104A0800B0BD40F6342040F6BC22C2F22000C2F20B
:104A18002002222108F0BBFEB0B502AF88B00446E0
:104A2800008804282CD109680020802206908DF87F
:104A38001C00029000906846059204F12402E58863
:104A4800049204F0B4F8C1B2082917D10698802856
:104A580019D9E068092121800068BFF35F8F00B38E
:104A6800A17C012202F0A5FDA0690068BFF35F8F59
:104A7800B8B1A17F012202F09CFD022008B0B0BDB0
:104A8800072008B0B0BDA84238BF05460120002164
:104A980020802046C4E92B15FFF71AFD082008B02E
:104AA800B0BD40F6342040F6BC22C2F22000C2F26B
:104AB8002002222108F06BFE002070477047082072
:104AC800704770470A46D0E900010AF090B80068BC
:104AD80009F041BB7047D0B502AF537A012B07D11B
:104AE800137A012B02BF90F82C3054889C4200D0D6
:104AF800D0BD9379212B04BF9288072A28D0088833
:104B080040F002000628F3D1C86809220A8000682C
:104B1800BFF35F8F88B18A7C0C461146012202F0F0
:104B280048FDA0690068BFF35F8F00281FBFA17F01
:104B38000122BDE8D04002F03CBD40F6342040F6EA
:104B4800BC22C2F22000C2F22002222108F01FFE7D
:104B58000A88042A18BFD0BDCA88002390F804C068
:104B6800012490F805E0072AC1F8AC308379006881
:104B7800486208460C8081F8283081F829E081F8DD
:104B88002AC028BF0722C1F8B020BDE8D040FFF7EF
:104B98009FBCD0B502AF84B0537A012B07D1137AEA
:104BA800012B02BF90F82C3054889C4201D004B0ED
:104BB800D0BD9379002B51D0202B0ED0222B2CD195
:104BC80012780B8802F0010480F82E40062BC2F3FD
:104BD800400280F82F20EAD143E0D1F8B030812B91
:104BE8005CD2062B19D991F8282091F8294091F820
:104BF8002AE0032A4B6AB1F800C003604FF00003B3
:104C080080F804E028BF1A46052C827138BF234675
:104C1800BCF1060F4371CAD123E0088840F00200B6
:104C28000628C4D1C86809220A800068BFF35F8FCC
:104C380048B38A7C0C461146012202F0BAFCA069EE
:104C48000068BFF35F8F00281FBFA17F012204B057
:104C5800BDE8D04018BF02F0ACBC14E008880628B4
:104C6800A5D188690368BFF35F8F63B18A7F00208D
:104C7800009002A80C461946012302F0B2FA082057
:104C8800208004B0D0BD40F6342040F6BC22C2F2E9
:104C98002000C2F22002222108F079FD40F6CC2241
:104CA8001846C2F22002802109F0CAFFF0B503AF0E
:104CB8004DF8048D84B090F82C60804600250220C1
:104CC800CDE900050C46084631460222022304F0CD
:104CD8007BF8C1B2082963D120463146022202235B
:104CE800009504F0C5F8C1B2082959D140F6DC2274
:104CF8002046C2F220022421032303F00AFFC1B296
:104D080008294DD140F6DF222046C2F22002242194
:104D1800022303F0FEFEC1B2082941D10620A7F103
:104D2800160207F8156C242198F82D60032307F85C
:104D3800160C204607F8146C03F0EBFEC1B20829E4
:104D48002ED10120A7F1130227F8130C20462421A5
:104D5800032307F8116C03F0DCFEC1B208291FD148
:104D680008F10801204600F0F7F8C1B2082917D168
:104D780000203146009020460A22002304F078F8EB
:104D8800C1B208290CD108F12001204600F0E4F84E
:104D9800C1B2082904D108F11401204600F0DCF85A
:104DA80004B05DF8048BF0BD0021C1858171082134
:104DB80081804FF4FA5101607047F0B503AF4DF8A8
:104DC800048D84B040F6E42048F2301648F24805D5
:104DD800C2F220000390C2F2000606F10800C2F2F7
:104DE800000502A902902846012200F04BFB044668
:104DF8000021D5F8DC00029102A900F065FC95F8C5
:104E0800E2203178022A34D179B9D5F8DC1080460D
:104E1800084602F0DBF80021D5F8DC00029102A96F
:104E280000F0CEFC404601213170F1690968BFF3FA
:104E38005F8F002900F085800443002096F8222027
:104E48000123009002A8012502F0BFFA6CB1706836
:104E5800BFF35F8F00F58264D4E84F1FC4E8425F58
:104E6800002AF9D1BFF35F8F89B104B05DF8048BD4
:104E7800F0BD31B10021D5F8DC00029102A900F0A3
:104E8800F3FC0020307004B05DF8048BF0BDD0F85E
:104E98000014BFF35F8FD0F80824BFF35F8FD0F8FA
:104EA800043400F20445BFF35F8F934205D1994261
:104EB8003EBFBFF35F8F00232B60994228BF0A468D
:104EC8009A4236D0B16A0968BFF35F8FC9B3A2EBC3
:104ED800030896F82E20034402A84646B8F5007F3A
:104EE80028BF4FF40076009602F07BF99DF8080081
:104EF80068B12078BFF35F8F0028B6D0BFF35F8F0B
:104F080055E8000F45E800010029F9D111E00398A0
:104F18002178BFF35F8F0029A7D0804538BF40466E
:104F2800BFF35F8F55E8001F014445E80012002ACF
:104F3800F8D10020BFF35F8F207004B05DF8048BB8
:104F4800F0BD40F6342040F6BC22C2F22000C2F286
:104F58002002222108F01BFCF0B503AF4DF8048DA8
:104F68008C46816889B3C36841698B4249D202691A
:104F7800D0F818E0D45C0134D4540EF102038B420B
:104F88001FD80EF58075A9422C4638BF0C469D42A5
:104F980045D3E41A052C14D39CF80640BCF80450F9
:104FA800D45413440EF107049CF808608C429CF812
:104FB80007805E704FEA15269D7083F80480DE70C6
:104FC80007D902205DF8048BF0BD07205DF8048B3B
:104FD800F0BD8E451CD2072302F80E300EF10103F6
:104FE8008B423FBF0521D154846108203CBF5DF846
:104FF800048BF0BD40F6A0321846C2F2200208F039
:10500800F1FB40F6B0321846C2F2200208F0EAFB83
:1050180040F690327046C2F2200208F0E3FB40F6F8
:1050280080321846C2F22002214609F02CFEF0B563
:1050380003AF2DE9000786B01D4691468846824693
:105048008AB108EBC9064446D4E900012A464B6AEE
:1050580051469847BAF8000040F00200062827D1C8
:105068000834B442F0D1687A30B3BAF8001041F08D
:10507800020006281CD11BD1DAF80C000921AAF875
:1050880000100068BFF35F8F002800F088809AF84E
:105098001210012202F08DFADAF818000068BFF346
:1050A8005F8F00287BD09AF81E10012202F081FA47
:1050B80006B0BDE80007F0BD297AA87949B30129EF
:1050C80012D0022908BF0028CFD16988DAF8DC009D
:1050D80001F08F0102F000FBBAF800100429C6D1D4
:1050E800AAF8240000202EE030B30A28BDD1BAF86F
:1050F80000100429BBD1BAF80610002001228AF852
:105108002400AAF80020002918BF0121CAE92B01B0
:1051180023E090B3062824D00828A6D19AF8E20004
:1051280001210591A7F1220102380491B0FA80F01B
:10513800400907F8220C2DE0BAF80010042996D18E
:105148000020AAF82400BAF806200121AAF80010C5
:10515800022A28BF0222CAE92B025046FFF7B8F9F3
:1051680083E769884A4628885346CDE900010AF151
:10517800B400414600F0E6F877E79AF8E00002222A
:105188009AF8E1100592A7F1220241EA4000049240
:1051980027F8220C04A95046FFF7C5FB65E740F63F
:1051A800342040F6BC22C2F22000C2F220022221A2
:1051B80008F0EDFAF0B503AF4DF8048D84B01D4644
:1051C800804692B101EBC2040E46D6E900012A4698
:1051D8000B6A41469847B8F8000040F002000628DC
:1051E80040F070800836A642EFD1687AB0B3B8F8BC
:1051F800000040F00200062864D1B8F8000040F032
:10520800020006285ED1D8F80C000921A8F8001081
:105218000068BFF35F8FB0B198F81210012202F056
:10522800C8F9D8F818000068BFF35F8F00281FBFBF
:1052380098F81E10012204B05DF8048B1CBFBDE86D
:10524800F04002F0B6B940F6342040F6BC22C2F273
:105258002000C2F22002222108F099FA2A7AA879BD
:105268002988022A32D0012A12D0002AC5D1013851
:105278000828C2D8DFE800F006054A0540050505FC
:105288005100BAE70129B8D1002088F8E00050E0C1
:105298000B2808BF0029B0D1B8F800000628A8D10B
:1052A800D8F818000168BFF35F8F0029CBD098F8B1
:1052B8001E200020009002A8012301F092FF082080
:1052C800A8F8000004B05DF8048BF0BD012807D0F1
:1052D800032808BF00297FF490AF6988012204E001
:1052E80000297FF48AAF69880022D8F8DC0001F031
:1052F8008F0102F05EF91CE0481E80B27F28BFF4DF
:105308007CAFD8F8DC0001F0C6FE0FE001297FF47D
:1053180074AF012088F8E0000BE021B101297FF487
:105328006CAF022003E098F8E20030B1012088F861
:10533800E2004046FEF76AFF59E74046FFF78AF960
:1053480055E7D4D4F0B503AF2DE9000B84B0D7E905
:1053580002690D4698464FF0FF330090B1B203EB57
:1053680011210E2900F25C80DFE801F00821105AB3
:105378005A5A5A5A5A5A5A5A5A5A2D00694640463F
:10538800FFF74AFB04B0BDE8000BF0BDF3B2032BF6
:1053980031D804210246DFE803F002221F254046E7
:1053A80004B0BDE8000BBDE8F040FFF765BA6846F9
:1053B80001A901904046CDE90252FFF776F904B001
:1053C800BDE8000BF0BD4046294604B0BDE8000B1F
:1053D800BDE8F040FFF7DBB900F108020C211368C3
:1053E8002BB91DE000F1100214211368C3B1415814
:1053F80018461A460AE0D40094B1F5E802014A4674
:105408004B6931469847083C0028F5D0CDE90101A1
:1054180001A94046FFF7AFFA04B0BDE8000BF0BDA4
:10542800B8F8000040F002000628ABD1D8F80C000C
:105438000921A8F800100068BFF35F8FB0B198F891
:105448001210012202F0B5F8D8F818000068BFF36E
:105458005F8F00281FBF98F81E10012204B0BDE816
:10546800000B1CBFBDE8F04002F0A3B840F63420A2
:1054780040F6BC22C2F22000C2F22002222108F02B
:1054880086F9D4D4F0B503AF2DE9000F8BB0D0F86E
:10549800DC400646A7F12E0088461546214602F054
:1054A8005CF996F8E20037F82E1C032813D100297E
:1054B8004FF0000018BF032903D10BB0BDE8000F5F
:1054C800F0BD96F8E300042800F0F380042286F883
:1054D800E20086F8E320DFE801F003122F0803005A
:1054E80000200BB0BDE8000FF0BD032186F8E300F3
:1054F80086F8E21000200BB0BDE8000FF0BD204692
:1055080001F040FE00204FF48061002D86F8E40091
:1055180086F8E000A6F8E2103080E1D008EBC50478
:10552800A8F1080555F8080F69688969884705F1E1
:105538000800A042F6D1D3E737F82C0C37F82A1C1C
:1055480037F8282C0390084340EA02090591049291
:105558005FEAC9703DD00598C0071CBF3046FFF709
:1055680013F80498C0070AD10398C00711D1042082
:1055780007F81D0C17F81D0C042813D127E0A7F114
:1055880026003146FEF7F7FE17F81D0C042809D14E
:105598001DE0A7F126003146FEF75EFE17F81D0C48
:1055A800042814D017F81F0C002873D080280ED1B7
:1055B800A7F12603304641462A46FFF738FD29F071
:1055C8000109B9F1000FCDE9018507D14DE029F0B6
:1055D8000109B9F1000FCDE9018546D002990029EA
:1055E80053D001984FF0020B012600EBC108A0F13F
:1055F800080504982C461BEA000F0AD054F8080F37
:1056080061688A6A3146904704F108004045F5D13F
:105618000EE003981BEA000F0AD02C4654F8080F36
:105628006168CA6A3146904704F108004045F5D1DF
:1056380005981BEA000F0DD066F07F04AA465AF8B9
:10564800080FDAF804100A6B214690470AF108009F
:105658004045F4D129EA0B095FEA094005D0701CDE
:105668000F2E4FEA4B0B0646C3D3029969B1019836
:1056780000EBC104A0F1080555F8080F6968C9696D
:10568800884705F10800A042F6D101200BB0BDE81B
:10569800000FF0BDA7F12603304641462A46FFF722
:1056A80089FD29F00109B9F1000FCDE9018595D1EE
:1056B800DBE740F6C03040F64042C2F22000C2F2BA
:1056C80020021C2107F0A3FFF0B503AF4DF804BD7D
:1056D80082B0044690F83400C8B12068002869D127
:1056E8004FF0FF30224642F8200B68460968CDE9A2
:1056F800001202F0ABF9002841D06D46284602F0AE
:10570800B5F9284602F0A2F90028F7D135E00E686D
:1057180003F01BFF054603F00BFF2068E90717D1CC
:10572800002847D14FF0FF30214641F8200B68464A
:10573800CDE9006102F08AF968B36D46284602F0A7
:1057480095F9284602F082F90028F7D1012527E0CB
:1057580080BB4FF0FF30214641F8200B6846CDE969
:10576800006102F073F950B16D46284602F07EF9E7
:10577800284602F06BF90028F7D1012004E06846BA
:1057880002F022F980F0010021680131216002B0A5
:105798005DF804BBF0BD684602F016F980F001051B
:1057A80020680130206003F0C5FE284602B05DF88D
:1057B80004BBF0BD40F6B040C2F2200007F0E9FE9D
:1057C800F0B503AF4DF804BD82B0044690F834003C
:1057D80058B12068002841D14FF0FF30224642F8E6
:1057E800200B0968CDE9001229E00E6803F0ADFE30
:1057F800054603F09DFE2068E90718D170BB4FF0FD
:10580800FF30214641F8200B6846CDE9006102F0DF
:1058180051F900281CBF684602F0CAF82068013018
:10582800206003F087FE02B05DF804BBF0BDA8B9A4
:105838004FF0FF30214641F8200BCDE90061684662
:1058480002F038F900281CBF684602F0B1F8206859
:105858000130206002B05DF804BBF0BD40F6B040F6
:10586800C2F2200007F095FEF0B503AF4DF804BD75
:1058780082B0044690F8340038B12068A0BB4FF0DD
:10588800FF3009682060009121E00E6803F05DFE9A
:10589800054603F04DFE2068E90713D120BB4FF001
:1058A800FF300096206004F120000190684602F065
:1058B80095F820680130206003F03CFE02B05DF8E6
:1058C80004BBF0BD80B94FF0FF300096206004F1B2
:1058D80020000190684602F081F8206801302060BD
:1058E80002B05DF804BBF0BD40F6B040C2F2200043
:1058F80007F04FFE80B56F4682B0002280290192E2
:1059080007D28DF80410012201A900F0E6F802B0D0
:1059180080BD02220B4662F39F13B1F5006F05D2DA
:105928008DF80530C02343EA911125E0B1F5803F99
:1059380011D28DF806308B0962F39F13E02242EAF8
:1059480011318DF805308DF80410032201A900F0FB
:10595800C4F802B080BD8DF807308B0962F39F133D
:105968008DF806300B0B890C62F39F131E2262F32D
:10597800DF0104228DF805308DF8041001A900F02C
:10598800ACF802B080BD0A4640F6C041C2F2200120
:1059980008F0E6BB7047F0B503AF2DE9000B48F2FD
:1059A8009452D1F80080C2F200021268904503D9DF
:1059B8000020BDE8000BF0BD4268F2B10068D1E9F3
:1059C8000194061D02EB4200850003E00C3D06F140
:1059D8000C06EDD030688442F8D156F8040C4946DC
:1059E80022460AF0C2FA0028F0D1716800208845E2
:1059F80098BF0120BDE8000BF0BD0120BDE8000BF9
:105A0800F0BDF0B503AF2DE9000F91B0804648F224
:105A18009450C2F20000D1F82090006881451ED849
:105A2800D8F804008A46F0B1D8F8001000EB40001E
:105A3800DAE909B60C1D850003E00C3D04F10C04FD
:105A48000DD020688642F8D154F8040C59463246E5
:105A58000AF08BFA0028F0D16068814505D911B0A9
:105A6800BDE8000FF0BDDAE909B6002040F6C041F4
:105A780005900420029040F6E040C2F2200001AAFE
:105A880001900320049007A8039042F61F00C0F27B
:105A98000000C2F220010C9010A80B9042F61500ED
:105AA800C0F20000CDF800800A900EA8099047F2D5
:105AB8005D00C0F20000CDF8349008900DA8079062
:105AC8000AF12C0010906846CDE90EB608F048FBA4
:105AD80011B0BDE8000FF0BD7047F0B503AF2DE978
:105AE800000F81B092468846D0F8009003F010FD70
:105AF800D9F80810002940F0FA80D9F80C404FF086
:105B0800FF31C9F80810012204F21146BFF35F8F74
:105B1800D6E84F1FC6E8432F002BF9D1BFF35F8F9C
:105B280061B10124D9F808100131C9F8081003F04F
:105B3800FAFC204601B0BDE8000FF0BDD4F800140F
:105B4800BFF35F8FD4F80424BFF35F8F914204D270
:105B5800CB4312EB030B0BD181E0B1F5806F05D17C
:105B6800012A7CD9A2F1010B002101E0C1F5806B6B
:105B78005646D34538BF5E4672182144BFF35F8F3F
:105B8800C4F80C2432460090084641460AF0EFF962
:105B9800009894F81114BFF35F8F69B3D4F800C468
:105BA80004F20C42BFF35F8FBFF35F8F52E8003FF0
:105BB80042E800310029F9D1BFF35F8FBCF5806F4F
:105BC800D4F80834BFF35F8FD4F80C24BFF35F8F89
:105BD80001D0624503D39A4205D94FF4806CBFF3D4
:105BE8005F8FC4F808C4BFF35F8FC4F80024002196
:105BF800BFF35F8F84F81114D34524D208EB060154
:105C0800D9F80C80AAEB0602012408F21146BFF36A
:105C18005F8FD6E84F3FC6E8454F002DF9D1002BDE
:105C2800BFF35F8F7FF47DAFD8F80034BFF35F8F89
:105C3800D8F804C4BFF35F8F634506D2DD431CEB7D
:105C4800050C14D10BE000246CE7B3F5806F0CD180
:105C5800BCF1010F03D9ACF1010C002307E00124CA
:105C68000021BFF35F8F31705CE7C3F5806C94450A
:105C780038BF6246D018BFF35F8FC8F80C0408EB32
:105C880003000AF074F998F81104BFF35F8F58B352
:105C9800D8F80014BFF35F8FBFF35F8F08F20C4290
:105CA800009852E8003F42E80035002DF9D1BFF3D3
:105CB8005F8FB1F5806FD8F80834BFF35F8FD8F8DD
:105CC8000C24BFF35F8F01D08A4203D39A4205D9CF
:105CD8004FF48061BFF35F8FC8F808140024BFF346
:105CE8005F8FC8F80024BBE7002400981AE740F645
:105CF8006850C2F2200007F04CFCD0B502AF48F261
:105D080068120C46D1E90113C2F200024FF0000CF0
:105D1800D06082E80A1040F67851C2F2200110469D
:105D280003F006FB002801BF216848F29452C2F232
:105D380000021160D0BDF0B503AF2DE9000F81B0AE
:105D480048F28C514FF0010CC2F20001BFF35F8F93
:105D5800D1E84F2FC1E843CF002BF9D1BFF35F8FB4
:105D6800002A01BF48F20001C4F20D010022C4F26A
:105D78002F0201BF02F5542C02F5502E02F54C28D3
:105D8800A1F5004401BFA1F5003501F5F61601F5AE
:105D9800F413C0E9683601BFC0E96A54C0E96C8EE3
:105DA800C0E96EC101F5005E01BF01F5805640F201
:105DB800040CC4F22E0C01F5021401BF0CF5FE759B
:105DC80001F5004300F5C07888E8380001BF00F508
:105DD800C67383E81210C0E9666EA1F5404C01BF96
:105DE80001F5881E01F5861801F5841401F5821362
:105DF80001BF01F5003602F51025C0E9585600F537
:105E0800B47501BF85E81A41C0F87CC1A1F5804C82
:105E180002F51C2E01BF02F5182802F51424A1F57D
:105E2800E03301F5282601BF01F5EE15C0E950560B
:105E380000F5A47585E8184101BFC0E9562C02F5A4
:105E4800782802F5742902F5702401BF02F56C2345
:105E58004CF2000CC4F2070C0CF5004601BF01F52A
:105E6800E03E01F58E15C0E9485EC0E94A6101BF10
:105E780000F5987585E81802C0F83C8101F54828B6
:105E880001BF01F5442901F5402A01F53C2B01F534
:105E9800382301BF01F5342401F5302501F52C26FE
:105EA800C0E9406501BFC0E94243C0E944BAC0E95E
:105EB800469802F5302801BF02F52C2902F5282A58
:105EC80002F5242B02F5861301BF02F5841402F5AE
:105ED800821502F58016C0E9386501BFC0E93A436A
:105EE800C0E93CBAC0E93E9801F5F01801BF01F5D8
:105EF8009219A1F5503AA1F5403BA1F5303301BF05
:105F080001F5901401F58C1501F58A16C0E9306584
:105F180001BFC0E93243C0E934BAC0E9369844F257
:105F2800000B01BFC4F2002B0BF500490BF5804AAA
:105F38004FF0844801BF01F56C2601F5682401F58E
:105F48006425A1F5C03301BFC0E9283500F1A803D5
:105F580083E85009C0E92EA901BF01F5602801F5C1
:105F6800E61901F5E81AA1F5203601BF0BF5E03373
:105F780001F5582401F55425C0E9205401BF00F16A
:105F8800880484E84804C0E9259EC0F89C8001BFC5
:105F9800A1F5103E01F5FE1801F5001902F5642A75
:105FA80001BF02F5602302F55C2602F5582501F5CC
:105FB800A03401BF00F1600B8BE87000C0E91B3A08
:105FC800C0E91D9801BFC0F87CE001F5803E02F5EC
:105FD80040480CF5804901BF01F5804A01F5F213EC
:105FE80044F20806C4F2090601BF06F1100506F1DD
:105FF8000804C0E91064C0E9125301BFC0E914A93C
:10600800C0E9168E0CF5C03E01F5103801BF01F548
:10601800801901F57C2401F5782302F57C2601BF5F
:1060280002F54825C0E9085600F1280585E8180258
:1060380001BFC0E90D81C0F83CE002F5442E02F52D
:106048000C2601BF01F5D21501F5242402F54022E2
:10605800A1F5803301BFA1F5A031C0E90013C0E963
:10606800022C103001BF80E8704001B0BDE8000F7D
:10607800F0BD40F6905040F62862C2F22000C2F20D
:106088002002352107F083FB48F248110068C4F26A
:106098001F0105230A6863F303020A60416841F09F
:1060A800080141600321704780B56F460A4641F2F6
:1060B8000021C0F27A0100F0A7FB80BDF0B503AF64
:1060C8004DF804BD0E4600211546044600F034FB89
:1060D800284640F2E24100F06BFA304600F02EFA12
:1060E80040F250152146C2F22005002228463668A3
:1060F80000F04AFAA81C2146002200F045FA281DA3
:106108002146002200F040FAA81D2146002200F096
:106118003BFA05F108002146002200F035FA05F1A6
:106128000A002146002200F02FFA05F10C00214652
:10613800002200F029FA05F10E002146002200F0A5
:1061480023FA05F110002146002200F01DFA05F19E
:1061580012002146002200F017FA05F1140021462A
:10616800002200F011FA05F116002146002200F085
:106178000BFA05F118002146002200F005FA05F196
:106188001A002146002200F0FFF905F11C00214603
:10619800002200F0F9F905F11E002146002200F066
:1061A800F3F920684169890107D5416921F0007137
:1061B8004161204600F0B1FA20684169012221F0CE
:1061C800605141612068816962F30D318161204627
:1061D80000F0A3FA2068416941F00071416120464E
:1061E80000F09BFA4FF480503060642030604FF428
:1061F800005070603068002809D4306800285CBFFF
:106208003068002803D43068B0F1FF3FF2DC206822
:106218000122016962F302010161204600F07DFA62
:106228002068416921F4E0514161204600F075FA87
:106238002068816941F4402181612068416921F029
:1062480000714161204600F068FA206840F26075EC
:10625800C2F220050022416941F44071416128469B
:10626800214600F091F9A81C2146002200F08CF983
:10627800281D2146002200F087F9A81D214600228A
:1062880000F082F92068022640F278750022C2F2F6
:106298002005816B66F3D84181632068816B41F4E6
:1062A800802181632846214600F06EF9A81C21460A
:1062B800002200F069F9281D2146002200F064F947
:1062C800A81D2146002200F05FF9206840F63865D5
:1062D8000322C2F22005816966F3051181612068F5
:1062E800816962F39C61816128462146002200F0A1
:1062F8004BF9A81C2146002200F046F9281D21462A
:10630800002200F041F9A81D2146002200F03CF9C6
:1063180005F108002146002200F036F9206817220E
:1063280040F29825C2F22005C16962F30501C161F6
:1063380020680022C16941F04001C1612846214618
:1063480000F022F9A81C2146002200F01DF9281DA2
:106358002146002200F018F9A81D2146002200F06D
:1063680013F905F108002146002200F00DF905F1A6
:106378000A002146002200F007F905F10C00214629
:10638800002200F001F905F10E002146002200F07C
:10639800FBF8206840F64265C2F220050322416AF4
:1063A80041F0400141622068416A66F3050141629B
:1063B8002846214600F0E8F8A81C2146032200F0F0
:1063C800E3F8281D2146032200F0DEF8A81D214627
:1063D800032200F0D9F805F108002146032200F055
:1063E800D3F805F10A002146032200F0CDF805F1A3
:1063F8000C002146032200F0C7F805F10E002146E3
:10640800032200F0C1F805F110002146032200F034
:10641800BBF805F112002146032200F0B5F805F19A
:1064280014002146032200F0AFF805F116002146BA
:10643800032200F0A9F805F118002146032200F014
:10644800A3F805F11A002146032200F09DF805F192
:106458001C002146032200F097F805F11E00214692
:10646800032200F091F805F120002146032200F0F4
:106478008BF805F122002146032200F085F805F18A
:1064880024002146032200F07FF805F1260021466A
:10649800032200F079F805F128002146032200F0D4
:1064A80073F805F12A002146032200F06DF805F182
:1064B8002C002146032200F067F805F12E00214642
:1064C800032200F061F805F130002146032200F0B4
:1064D8005BF805F132002146032200F055F805F17A
:1064E80034002146032200F04FF805F1360021461A
:1064F800032200F049F805F138002146032200F094
:1065080043F805F13A002146032200F03DF805F171
:106518003C002146032200F037F805F13E002146F1
:10652800032200F031F805F14000214603225DF80E
:1065380004BBBDE8F04000F027B8FEE780B56F4621
:1065480000684FF400514FF480524FF0400C4FF464
:10655800803E00E0416103699B04FBD50369DB04CD
:1065680001D44261F7E70369B3F1FF3FF3DC036944
:10657800DB0306D403695B0648BF80BDC0F814C0BE
:10658800E9E7C0F818E0E6E703784078096803F01F
:106598003F0301EB83014000C0B20323D1F868C078
:1065A800834002FA00F02CEA030318438866704718
:1065B80040F22762914238BF0A46B2F5487F98BF39
:1065C8004FF44872A2F5487144F2AF7300688AB27A
:1065D8005A43C368A1EB124189B2490801EB124141
:1065E80023F01F0242EA1111C16004E00168B1F111
:1065F800FF3FD8BF70470168002905D4016800290A
:106608005CBF01680029F1D57047F0B503AF2DE9EB
:10661800000B44F2E043C4F21F031B68C3F30B2EC4
:106628004FEA135CE6451FBF0124C1F88841DBB27D
:106638004FF47A781FBF03FB08F9ACEB0E04D1F8CE
:10664800906149F658651FBFCFF6FF7513FB0853D5
:1066580093FBF4F3C2EA06021FBFC1F8902180E859
:106668000A40C0F80C90BDE8000B18BFF0BD40F61A
:10667800F460C2F2200008F0A3FFB0B502AF0546EF
:1066880008680C4640F480300860086840F0400014
:106698000860222063F31340486040F26850C0F25B
:1066A8000C10086240F29510C0F2B2004862DC207B
:1066B800C0F27A0088627D20C0F25800C8624B2080
:1066C800C0F2400008632F20C0F22E0048638863A0
:1066D80046F62010C86040F6A31088604FF4C84002
:1066E800C8614FF4C860886140F6C410C0F68040A5
:1066F80008613F204861086820F0030010430860E3
:10670800086820F480300860C86F4021281D09F00F
:106718005BFA10202C606864B0BD006803E0816CEF
:10672800002908BF7047816C29B1816C00291CBF02
:10673800816C0029F3D170470068426D22F0030292
:10674800114341657047F0B503AF2DE9000FADF572
:10675800057D0DF1040980464FF40071484609F0A3
:1067680033FA44F2BC2A0DF5017BC2F2000A002478
:106778006FF00F055646DAE96001CDE98301584606
:106788008294819602F09BFD0DF5017C09EB0500D2
:1067980010350C369CE80E1001341030B5F5F87F32
:1067A80080E80E10E7D101A940464FF4007209F0C5
:1067B800E0FB0DF5057DBDE8000FF0BD0146023890
:1067C800C3B2042B28BF042388B24FEA102C4FF41D
:1067D8000070DFE803F0030C041205006046704700
:1067E800C8070CBF0CF580600CF5A060704701214C
:1067F800CCFA51F061F31F20704701200321CCFA35
:1068080050F061F31F207047F0B503AF4DF804BD99
:1068180086B041F2200C4FFA82FEC2F2200C5CF8DE
:106828002E20B1FBF2F2131F4AF6AB221C0A022CEF
:1068380007D89BB253435E0CF4B2202C01D200213E
:106848008FE05CF82E304C08B4FBF3F3033B1C0AD2
:10685800022C07D89BB25A43560CF2B2202A01D216
:1068680001217EE05CF82E208B08B3FBF2F2931E28
:106878004AF6AB221C0A022C07D89BB253435E0C83
:10688800F4B2202C01D202216BE05CF82E30CC0847
:10689800B4FBF3F3023B1C0A022C07D89BB25A4301
:1068A800560CF2B2202A01D203215AE05CF82E20BD
:1068B8000B09B3FBF2F2931E4AF6AB221C0A022C18
:1068C80007D89BB253435E0CF4B2202C01D20421AA
:1068D80047E05CF82E304C09B4FBF3F3023B1C0A8A
:1068E800022C07D89BB25A43560CF2B2202A01D286
:1068F800052136E05CF82E208B09B3FBF2F2931EDB
:106908004AF6AB221C0A022C07D89BB253435E0CF2
:10691800F4B2202C01D2062123E05CF82E30C909FC
:10692800B1FBF3F102390B0A022B9FBF89B2514325
:106938004E0CF1B298BF202912D3012100200191F9
:1069480040F68C71C2F220010490009140F69471D7
:10695800039004200290C2F22001684606F006FF68
:10696800072140F2F00400228281F2B2C2F2200430
:10697800022A54F82110144698BF02247600012AEE
:106988004FF00105847288BF1546F6B20123032E25
:10699800057298BF0326012A467288BF6B080160FA
:1069A80031190422C372490052FA81F16A1CD2B229
:1069B800914288BF0A46426006B05DF804BBF0BD4C
:1069C800B0B502AF82B005680C46A80126D4E8012C
:1069D8003CD4680452D4A80468D4E8047ED42805BA
:1069E80000F19480680500F1A880A80500F1BB803B
:1069F800E80500F1CE80A80700F1E080E80740F044
:106A0800F180002D019540F0068141F218012046E1
:106A1800C2F22001072208F095F809E140F26871F6
:106A28002046C2F22001082208F08CF8002840F025
:106A38000081E80115D540F6A4712046C2F2200174
:106A4800032208F07FF8002840F0F38040F6A77191
:106A58002046C2F220010F2208F074F8002840F006
:106A6800E880680415D540F6A4712046C2F22001DA
:106A7800032208F067F8002840F0DB8040F6B67182
:106A88002046C2F220010A2208F05CF8002840F0F3
:106A9800D080A80415D540F6A4712046C2F2200182
:106AA800032208F04FF8002840F0C38040F6C07178
:106AB8002046C2F220010F2208F044F8002840F0D6
:106AC800B880E80415D540F6A4712046C2F220012A
:106AD800032208F037F8002840F0AB8040F6CF7169
:106AE8002046C2F220010A2208F02CF8002840F0C3
:106AF800A080280515D540F6A4712046C2F22001D1
:106B0800032208F01FF8002840F0938040F2A821E3
:106B18002046C2F22001102208F014F8002840F0A4
:106B28008880680513D540F6A4712046C2F220017A
:106B3800032208F007F800287BD140F6D9712046D7
:106B4800C2F220010D2207F0FDFF002871D1A8052F
:106B580013D540F6A4712046C2F22001032207F0A3
:106B6800F1FF002865D140F6E6712046C2F2200107
:106B78000D2207F0E7FF00285BD1E80513D540F6A2
:106B8800A4712046C2F22001032207F0DBFF00288F
:106B98004FD140F6F3712046C2F220010A2207F0D5
:106BA800D1FF002845D1A80711D540F6A471204689
:106BB800C2F22001032207F0C5FFD0BB40F6FD71E9
:106BC8002046C2F220010C2207F0BCFF88BBE80770
:106BD80011D040F6A4712046C2F22001032207F02A
:106BE800B1FF30BB41F209012046C2F220010D225B
:106BF80007F0A8FFE8B948F2FC00CFF6FF402840AC
:106C0800019019D040F6A4712046C2F22001032257
:106C180007F098FF68B941F216012046C2F2200138
:106C2800022207F08FFF20B901A8214608F06CFD69
:106C380010B1012002B0B0BD002002B0B0BDF0B567
:106C480003AF4DF804BD044690F834000D4608B172
:106C5800206829E002F079FC064602F069FC206809
:106C6800F10721D1002801BF206A4FF0FF312160D0
:106C7800D0F8481101BF21F0410165F3000165F327
:106C88008611C0F8481101BF2068013020605DF806
:106C980004BB04BFBDE8F04002F04CBC41F29C00CC
:106CA800C2F2200006F075FC002801BF206A4FF0F0
:106CB800FF312160D0F8481101BF21F0410165F38F
:106CC800000165F38611C0F8481101BF2068013042
:106CD80020605DF804BB08BFF0BDDFE7F0B503AF87
:106CE8004DF804BD044690F834000D4608B12068FC
:106CF80035E002F02AFC064602F01AFC2068F1078B
:106D08002DD100285BD14FF0FF3069002060E8B238
:106D180041EAD011A268C8B2824217D9E26901F0EB
:106D28000F011268BFF35F8F92B222FA01F1C9070F
:106D38000CD0A16981423CD9616900EB800001EB6C
:106D480080008068016821F00051016020680130EE
:106D580020605DF804BBBDE8F04002F0EBBB70BBFF
:106D68004FF0FF3069002060E8B241EAD011A26814
:106D7800C8B2824217D9E26901F00F011268BFF365
:106D88005F8F92B222FA01F1C9070CD0A169814242
:106D98000FD9616900EB800001EB80008068016811
:106DA80021F0005101602068013020605DF804BBCB
:106DB800F0BD41F2CC22C2F2200206F013FD41F2EE
:106DC8009C00C2F2200006F0E4FBF0B503AF2DE909
:106DD800000782B006683168002940F0F18000F1B0
:106DE800040A04694FF0FF3230469AE8220440F85A
:106DF800042B0A7862B34C78B268610041EAD41176
:106E0800CBB29A4211D9F26901F00F011268BFF3AF
:106E18005F8F92B222FA01F1C90706D0B16999428F
:106E280040F2C78001200521BCE0F16A2B88994215
:106E3800C0F0AC80CA1AB16A8A42C0F0A780F26278
:106E48009AF800100091214601F026FD2146A8E09D
:106E58002178B26841F001094FEA490343EAD111A8
:106E6800CBB29A4240F28A80F26901F00F011268AF
:106E7800BFF35F8F92B222FA01F1C9077ED0B169E0
:106E8800994240F296802178B26841F002094FEAAF
:106E9800490343EAD111CBB29A426FD9F26901F0A2
:106EA8000F011268BFF35F8F92B222FA01F1C9078E
:106EB80064D0B16999427CD92178B26841F003095C
:106EC8004FEA490343EAD111CBB29A4256D9F26943
:106ED80001F00F011268BFF35F8F92B222FA01F13D
:106EE800C9074BD0B169994263D92178B26841F09A
:106EF80004094FEA490343EAD111CBB29A423DD97A
:106F0800F26901F00F011268BFF35F8F92B222FAA3
:106F180001F1C90732D0B16999424AD92178B268DA
:106F280041F005094FEA490343EAD111CBB29A422D
:106F380024D9F26901F00F011268BFF35F8F92B292
:106F480022FA01F1C90719D0B169994231D92178DA
:106F5800804641F00609494600F060FF0146404678
:106F680061B1207840F007094046494600F056FFD5
:106F78000146404611B10120032113E0F16A2B8834
:106F8800994203D3CA1AB16A8A4202D20120042163
:106F980008E0F2629AF800100091494601F07CFC82
:106FA8004946002032680132326002B0BDE800076D
:106FB800F0BD41F2BC221846C2F2200206F012FCD3
:106FC80041F29C00C2F2200006F0E3FAB0B502AF2D
:106FD800044690F8340008B1206815E002F0B5FACC
:106FE800054602F0A5FA2068E9070DD1B8B94FF0B7
:106FF800FF302060201D01F0D6FC206801302060A1
:10700800BDE8B04002F096BA48B94FF0FF302060B2
:10701800201D01F0C8FC206801302060B0BD41F29D
:107028009C00C2F2200006F0B4FAB0B502AF88B0F6
:1070380007F8221CA7F122010791A7F11F01069169
:10704800A7F11E01059190F83410D7E9024507F819
:10705800212CA7F1210207F8203C07F81F4C27F83C
:107068001E5CCDE9030221B103A8FFF7AEFE08B00C
:10707800B0BD02F06AFA044602F05AFA03A8FFF714
:10708800A4FEE20705D104460D4602F053FA29464C
:10709800204608B0B0BDF0B503AF4DF804BD0446B6
:1070A80090F834000D4608B1206823E002F04DFA4C
:1070B800064602F03DFA2068F1071BD1002801BFFF
:1070C800206A4FF0FF312160690601BF01F180712C
:1070D800C0F854112068013001BF20605DF804BB7E
:1070E800BDE8F04002F026BA41F29C00C2F220004E
:1070F80006F04FFA002801BF206A4FF0FF312160E7
:10710800690601BF01F18071C0F85411206801308F
:1071180002BF20605DF804BBF0BDE5E7B0B502AF83
:10712800044690F8340008B120681DE002F00DFA1A
:10713800054602F0FDF92068E90715D1002801BFCE
:10714800206AD0F840110022226001BF41F00101FD
:10715800C0F84011BDE8B04002F0ECB941F29C0023
:10716800C2F2200006F015FA002801BF206AD0F804
:1071780040110022226002BF41F00101C0F8401115
:10718800B0BDEBE7B0B502AF044690F8340008B1E3
:10719800206815E002F0D9F9054602F0C9F920681F
:1071A800E9070DD1B8B94FF0FF302060201D00F07D
:1071B800B0FD206801302060BDE8B04002F0BAB9E7
:1071C80048B94FF0FF302060201D00F0A2FD206874
:1071D80001302060B0BD41F29C00C2F2200006F0F0
:1071E800D8F9F0B503AF2DE9000784B0814691F8CE
:1071F8003400D7F8088016460D46E0B32868002802
:1072080040F0DD804FF0FF3071002860F0B241EAB5
:10721800D011AA68C8B2824220D9EA6901F00F01E8
:107228001268BFF35F8F92B222FA01F1C90715D035
:10723800A969814240F2BD80291D700600F0928044
:1072480002A81A464346009601F054F99DF8080032
:10725800002800F091809DF8090000E0052089F8D9
:1072680001000120296889F80000481C286004B042
:10727800BDE80007F0BD9A4602F067F9044602F03F
:1072880057F92868E1072CD1002840F098804FF082
:10729800FF3071002860F0B241EAD011AA68C8B284
:1072A800824249D9EB6901F00F011B68BFF35F8F78
:1072B8009BB223FA01F1C9073ED0A969814278D966
:1072C800291D524670065CD002A84346009601F07C
:1072D80011F99DF8080000285BD09DF80960012489
:1072E8002CE000286BD14FF0FF3071002860F0B21D
:1072F80041EAD011AA68C8B2824225D9EB6901F0E7
:107308000F011B68BFF35F8F9BB223FA01F1C90716
:107318001AD0A96981424CD9291D524670063CD021
:1073280002A84346009601F0E5F89DF80800E0B38E
:107338009DF80960012409E0012405262868013028
:10734800286002F0F7F804E00124052628680130D7
:107358002860F0B244EA0020C9E9000804B0BDE89A
:107368000007F0BD02A81A46434600F0B9FE9DF892
:10737800080000287FF46FAF0398C9F804000020C4
:1073880070E702A8434600F0ABFE9DF8080000280D
:10739800A3D1DDF80C800024D0E702A8434600F012
:1073A8009FFE9DF808000028C2D1DDF80C8000245B
:1073B800CCE741F2BC22C2F2200206F013FA41F2F5
:1073C8009C00C2F2200006F0E4F8F0B503AF2DE906
:1073D800000784B0814691F83400D7F80880164633
:1073E8000D46E0B32868002840F0DD804FF0FF30FC
:1073F80071002860F0B241EAD011AA68C8B282428E
:1074080020D9EA6901F00F011268BFF35F8F92B2C9
:1074180022FA01F1C90715D0A969814240F2BD805D
:10742800291D700600F0928002A81A46434600966D
:1074380000F080FF9DF80800002800F091809DF87A
:10744800090000E0052089F801000120296889F871
:107458000000481C286004B0BDE80007F0BD9A464B
:1074680002F073F8044602F063F82868E1072CD1AB
:10747800002840F098804FF0FF3071002860F0B28B
:1074880041EAD011AA68C8B2824249D9EB6901F031
:107498000F011B68BFF35F8F9BB223FA01F1C90785
:1074A8003ED0A969814278D9291D524670065CD020
:1074B80002A84346009600F03DFF9DF8080000280A
:1074C8005BD09DF8096001242CE000286BD14FF0B7
:1074D800FF3071002860F0B241EAD011AA68C8B242
:1074E800824225D9EB6901F00F011B68BFF35F8F5A
:1074F8009BB223FA01F1C9071AD0A96981424CD974
:10750800291D524670063CD002A84346009600F05A
:1075180011FF9DF80800E0B39DF80960012409E017
:107528000124052628680130286002F003F804E0E9
:1075380001240526286801302860F0B244EA0020BA
:10754800C9E9000804B0BDE80007F0BD02A81A4662
:10755800434600F086FC9DF8080000287FF46FAFD2
:107568000398C9F80400002070E702A8434600F019
:1075780078FC9DF808000028A3D1DDF80C800024D1
:10758800D0E702A8434600F06CFC9DF808000028EC
:10759800C2D1DDF80C800024CCE741F2BC22C2F253
:1075A800200206F01FF941F29C00C2F2200005F00B
:1075B800F0FFF0B503AF4DF8048D044690F83400A1
:1075C8000D46F8B12068002840F080804FF0FF3069
:1075D80069002060E8B241EAD011A368C8B28342CA
:1075E80061D9E36901F00F011B68BFF35F8F9BB29C
:1075F80023FA01F1C90756D0A169814259D9201D42
:1076080011464DE0904601F0A0FF064601F090FFBC
:107618002068F10728D1002858D14FF0FF306A00C0
:107628002060E8B242EAD012A168D0B2814212D9F1
:10763800E36902F00F021B68BFF35F8F9BB223FA66
:1076480002F2D20707D0A369834238D9201D4146E8
:107658002A4601F039F82068013020605DF8048B73
:10766800BDE8F04001F066BF80BB4FF0FF306A0014
:107678002060E8B242EAD012A168D0B2814212D9A1
:10768800E36902F00F021B68BFF35F8F9BB223FA16
:1076980002F2D20707D0A369834210D94146201DC0
:1076A8002A4601F011F82068013020605DF8048B4B
:1076B800F0BD41F2BC22C2F2200206F093F841F27A
:1076C800BC221946C2F2200206F08CF841F29C0056
:1076D800C2F2200005F05DFFF0B503AF4DF804BD20
:1076E800044690F8340028B120686FF000429042B8
:1076F80022D32CE00E4601F028FF054601F018FFC2
:107708002068E90713D16FF0004188421FD2013089
:107718002060201D314601F064F8054620680138D4
